{
    "_format": "hh-sol-artifact-1",
    "contractName": "AWBCToken",
    "sourceName": "contracts/AWBCToken.sol",
    "address": "0x011328Abd3201E57670BcAf0d223e978E178417C",
    "abi": [
        {
            "inputs": [],
            "stateMutability": "nonpayable",
            "type": "constructor"
        },
        {
            "anonymous": false,
            "inputs": [
                {
                    "indexed": true,
                    "internalType": "address",
                    "name": "owner",
                    "type": "address"
                },
                {
                    "indexed": true,
                    "internalType": "address",
                    "name": "spender",
                    "type": "address"
                },
                {
                    "indexed": false,
                    "internalType": "uint256",
                    "name": "value",
                    "type": "uint256"
                }
            ],
            "name": "Approval",
            "type": "event"
        },
        {
            "anonymous": false,
            "inputs": [
                {
                    "indexed": true,
                    "internalType": "address",
                    "name": "previousOwner",
                    "type": "address"
                },
                {
                    "indexed": true,
                    "internalType": "address",
                    "name": "newOwner",
                    "type": "address"
                }
            ],
            "name": "OwnershipTransferred",
            "type": "event"
        },
        {
            "anonymous": false,
            "inputs": [
                {
                    "indexed": true,
                    "internalType": "address",
                    "name": "from",
                    "type": "address"
                },
                {
                    "indexed": true,
                    "internalType": "address",
                    "name": "to",
                    "type": "address"
                },
                {
                    "indexed": false,
                    "internalType": "uint256",
                    "name": "value",
                    "type": "uint256"
                }
            ],
            "name": "Transfer",
            "type": "event"
        },
        {
            "inputs": [
                {
                    "internalType": "address",
                    "name": "owner",
                    "type": "address"
                },
                {
                    "internalType": "address",
                    "name": "spender",
                    "type": "address"
                }
            ],
            "name": "allowance",
            "outputs": [
                {
                    "internalType": "uint256",
                    "name": "",
                    "type": "uint256"
                }
            ],
            "stateMutability": "view",
            "type": "function"
        },
        {
            "inputs": [
                {
                    "internalType": "address",
                    "name": "spender",
                    "type": "address"
                },
                {
                    "internalType": "uint256",
                    "name": "amount",
                    "type": "uint256"
                }
            ],
            "name": "approve",
            "outputs": [
                {
                    "internalType": "bool",
                    "name": "",
                    "type": "bool"
                }
            ],
            "stateMutability": "nonpayable",
            "type": "function"
        },
        {
            "inputs": [
                {
                    "internalType": "address",
                    "name": "from",
                    "type": "address"
                },
                {
                    "internalType": "address",
                    "name": "spender",
                    "type": "address"
                },
                {
                    "internalType": "uint256",
                    "name": "amount",
                    "type": "uint256"
                }
            ],
            "name": "approve",
            "outputs": [
                {
                    "internalType": "bool",
                    "name": "",
                    "type": "bool"
                }
            ],
            "stateMutability": "nonpayable",
            "type": "function"
        },
        {
            "inputs": [
                {
                    "internalType": "address",
                    "name": "account",
                    "type": "address"
                }
            ],
            "name": "balanceOf",
            "outputs": [
                {
                    "internalType": "uint256",
                    "name": "",
                    "type": "uint256"
                }
            ],
            "stateMutability": "view",
            "type": "function"
        },
        {
            "inputs": [],
            "name": "decimals",
            "outputs": [
                {
                    "internalType": "uint8",
                    "name": "",
                    "type": "uint8"
                }
            ],
            "stateMutability": "view",
            "type": "function"
        },
        {
            "inputs": [
                {
                    "internalType": "address",
                    "name": "spender",
                    "type": "address"
                },
                {
                    "internalType": "uint256",
                    "name": "subtractedValue",
                    "type": "uint256"
                }
            ],
            "name": "decreaseAllowance",
            "outputs": [
                {
                    "internalType": "bool",
                    "name": "",
                    "type": "bool"
                }
            ],
            "stateMutability": "nonpayable",
            "type": "function"
        },
        {
            "inputs": [
                {
                    "internalType": "address",
                    "name": "spender",
                    "type": "address"
                },
                {
                    "internalType": "uint256",
                    "name": "addedValue",
                    "type": "uint256"
                }
            ],
            "name": "increaseAllowance",
            "outputs": [
                {
                    "internalType": "bool",
                    "name": "",
                    "type": "bool"
                }
            ],
            "stateMutability": "nonpayable",
            "type": "function"
        },
        {
            "inputs": [
                {
                    "internalType": "address",
                    "name": "to",
                    "type": "address"
                },
                {
                    "internalType": "uint256",
                    "name": "amount",
                    "type": "uint256"
                }
            ],
            "name": "mint",
            "outputs": [],
            "stateMutability": "nonpayable",
            "type": "function"
        },
        {
            "inputs": [],
            "name": "name",
            "outputs": [
                {
                    "internalType": "string",
                    "name": "",
                    "type": "string"
                }
            ],
            "stateMutability": "view",
            "type": "function"
        },
        {
            "inputs": [],
            "name": "owner",
            "outputs": [
                {
                    "internalType": "address",
                    "name": "",
                    "type": "address"
                }
            ],
            "stateMutability": "view",
            "type": "function"
        },
        {
            "inputs": [],
            "name": "renounceOwnership",
            "outputs": [],
            "stateMutability": "nonpayable",
            "type": "function"
        },
        {
            "inputs": [],
            "name": "symbol",
            "outputs": [
                {
                    "internalType": "string",
                    "name": "",
                    "type": "string"
                }
            ],
            "stateMutability": "view",
            "type": "function"
        },
        {
            "inputs": [],
            "name": "totalSupply",
            "outputs": [
                {
                    "internalType": "uint256",
                    "name": "",
                    "type": "uint256"
                }
            ],
            "stateMutability": "view",
            "type": "function"
        },
        {
            "inputs": [
                {
                    "internalType": "address",
                    "name": "recipient",
                    "type": "address"
                },
                {
                    "internalType": "uint256",
                    "name": "amount",
                    "type": "uint256"
                }
            ],
            "name": "transfer",
            "outputs": [
                {
                    "internalType": "bool",
                    "name": "",
                    "type": "bool"
                }
            ],
            "stateMutability": "nonpayable",
            "type": "function"
        },
        {
            "inputs": [
                {
                    "internalType": "address",
                    "name": "sender",
                    "type": "address"
                },
                {
                    "internalType": "address",
                    "name": "recipient",
                    "type": "address"
                },
                {
                    "internalType": "uint256",
                    "name": "amount",
                    "type": "uint256"
                }
            ],
            "name": "transferFrom",
            "outputs": [
                {
                    "internalType": "bool",
                    "name": "",
                    "type": "bool"
                }
            ],
            "stateMutability": "nonpayable",
            "type": "function"
        },
        {
            "inputs": [
                {
                    "internalType": "address",
                    "name": "newOwner",
                    "type": "address"
                }
            ],
            "name": "transferOwnership",
            "outputs": [],
            "stateMutability": "nonpayable",
            "type": "function"
        }
    ],
    "bytecode": "0x60806040523480156200001157600080fd5b506040518060400160405280600d81526020016c416c70686120576f6c6620424360981b815250604051806040016040528060048152602001634157424360e01b8152506200006f62000069620000a360201b60201c565b620000a7565b815162000084906004906020850190620000f7565b5080516200009a906005906020840190620000f7565b505050620001da565b3390565b600080546001600160a01b038381166001600160a01b0319831681178455604051919092169283917f8be0079c531659141344cd1fd0a4f28419497f9722a3daafe3b4186f6b6457e09190a35050565b82805462000105906200019d565b90600052602060002090601f01602090048101928262000129576000855562000174565b82601f106200014457805160ff191683800117855562000174565b8280016001018555821562000174579182015b828111156200017457825182559160200191906001019062000157565b506200018292915062000186565b5090565b5b8082111562000182576000815560010162000187565b600281046001821680620001b257607f821691505b60208210811415620001d457634e487b7160e01b600052602260045260246000fd5b50919050565b610d4c80620001ea6000396000f3fe608060405234801561001057600080fd5b50600436106101005760003560e01c8063715018a611610097578063a9059cbb11610066578063a9059cbb146101f3578063dd62ed3e14610206578063e1f21c6714610219578063f2fde38b1461022c57610100565b8063715018a6146101bb5780638da5cb5b146101c357806395d89b41146101d8578063a457c2d7146101e057610100565b8063313ce567116100d3578063313ce5671461016b578063395093511461018057806340c10f191461019357806370a08231146101a857610100565b806306fdde0314610105578063095ea7b31461012357806318160ddd1461014357806323b872dd14610158575b600080fd5b61010d61023f565b60405161011a91906109ba565b60405180910390f35b610136610131366004610972565b6102d1565b60405161011a91906109af565b61014b6102ee565b60405161011a9190610ca0565b610136610166366004610937565b6102f4565b610173610357565b60405161011a9190610ca9565b61013661018e366004610972565b61035c565b6101a66101a1366004610972565b6103b0565b005b61014b6101b63660046108e4565b610410565b6101a661042f565b6101cb61047a565b60405161011a919061099b565b61010d610489565b6101366101ee366004610972565b610498565b610136610201366004610972565b610511565b61014b610214366004610905565b610525565b610136610227366004610937565b610550565b6101a661023a3660046108e4565b61055d565b60606004805461024e90610cdb565b80601f016020809104026020016040519081016040528092919081815260200182805461027a90610cdb565b80156102c75780601f1061029c576101008083540402835291602001916102c7565b820191906000526020600020905b8154815290600101906020018083116102aa57829003601f168201915b5050505050905090565b60006102e56102de6105ce565b84846105d2565b50600192915050565b60035490565b6000610301848484610686565b600061030d8585610525565b9050828110156103385760405162461bcd60e51b815260040161032f90610b1e565b60405180910390fd5b61034c856103446105ce565b8584036105d2565b506001949350505050565b601290565b60006102e56103696105ce565b8484600260006103776105ce565b6001600160a01b03908116825260208083019390935260409182016000908120918b16815292529020546103ab9190610cb7565b6105d2565b6103b86105ce565b6001600160a01b03166103c961047a565b6001600160a01b0316146103ef5760405162461bcd60e51b815260040161032f90610b66565b6001600160a01b03821661040257600080fd5b61040c82826107b0565b5050565b6001600160a01b0381166000908152600160205260409020545b919050565b6104376105ce565b6001600160a01b031661044861047a565b6001600160a01b03161461046e5760405162461bcd60e51b815260040161032f90610b66565b6104786000610878565b565b6000546001600160a01b031690565b60606005805461024e90610cdb565b600080600260006104a76105ce565b6001600160a01b03908116825260208083019390935260409182016000908120918816815292529020549050828110156104f35760405162461bcd60e51b815260040161032f90610c24565b6105076104fe6105ce565b858584036105d2565b5060019392505050565b60006102e561051e6105ce565b8484610686565b6001600160a01b03918216600090815260026020908152604080832093909416825291909152205490565b60006105078484846105d2565b6105656105ce565b6001600160a01b031661057661047a565b6001600160a01b03161461059c5760405162461bcd60e51b815260040161032f90610b66565b6001600160a01b0381166105c25760405162461bcd60e51b815260040161032f90610a50565b6105cb81610878565b50565b3390565b6001600160a01b0383166105f85760405162461bcd60e51b815260040161032f90610be0565b6001600160a01b03821661061e5760405162461bcd60e51b815260040161032f90610a96565b6001600160a01b0380841660008181526002602090815260408083209487168084529490915290819020849055517f8c5be1e5ebec7d5bd14f71427d1e84f3dd0314c0f7b2291e5b200ac8c7c3b92590610679908590610ca0565b60405180910390a3505050565b6001600160a01b0383166106ac5760405162461bcd60e51b815260040161032f90610b9b565b6001600160a01b0382166106d25760405162461bcd60e51b815260040161032f90610a0d565b6106dd8383836108c8565b6001600160a01b038316600090815260016020526040902054818110156107165760405162461bcd60e51b815260040161032f90610ad8565b6001600160a01b0380851660009081526001602052604080822085850390559185168152908120805484929061074d908490610cb7565b92505081905550826001600160a01b0316846001600160a01b03167fddf252ad1be2c89b69c2b068fc378daa952ba7f163c4a11628f55a4df523b3ef846040516107979190610ca0565b60405180910390a36107aa8484846108c8565b50505050565b6001600160a01b0382166107d65760405162461bcd60e51b815260040161032f90610c69565b6107e2600083836108c8565b80600360008282546107f49190610cb7565b90915550506001600160a01b03821660009081526001602052604081208054839290610821908490610cb7565b90915550506040516001600160a01b038316906000907fddf252ad1be2c89b69c2b068fc378daa952ba7f163c4a11628f55a4df523b3ef90610864908590610ca0565b60405180910390a361040c600083836108c8565b600080546001600160a01b038381166001600160a01b0319831681178455604051919092169283917f8be0079c531659141344cd1fd0a4f28419497f9722a3daafe3b4186f6b6457e09190a35050565b505050565b80356001600160a01b038116811461042a57600080fd5b6000602082840312156108f5578081fd5b6108fe826108cd565b9392505050565b60008060408385031215610917578081fd5b610920836108cd565b915061092e602084016108cd565b90509250929050565b60008060006060848603121561094b578081fd5b610954846108cd565b9250610962602085016108cd565b9150604084013590509250925092565b60008060408385031215610984578182fd5b61098d836108cd565b946020939093013593505050565b6001600160a01b0391909116815260200190565b901515815260200190565b6000602080835283518082850152825b818110156109e6578581018301518582016040015282016109ca565b818111156109f75783604083870101525b50601f01601f1916929092016040019392505050565b60208082526023908201527f45524332303a207472616e7366657220746f20746865207a65726f206164647260408201526265737360e81b606082015260800190565b60208082526026908201527f4f776e61626c653a206e6577206f776e657220697320746865207a65726f206160408201526564647265737360d01b606082015260800190565b60208082526022908201527f45524332303a20617070726f766520746f20746865207a65726f206164647265604082015261737360f01b606082015260800190565b60208082526026908201527f45524332303a207472616e7366657220616d6f756e7420657863656564732062604082015265616c616e636560d01b606082015260800190565b60208082526028908201527f45524332303a207472616e7366657220616d6f756e74206578636565647320616040820152676c6c6f77616e636560c01b606082015260800190565b6020808252818101527f4f776e61626c653a2063616c6c6572206973206e6f7420746865206f776e6572604082015260600190565b60208082526025908201527f45524332303a207472616e736665722066726f6d20746865207a65726f206164604082015264647265737360d81b606082015260800190565b60208082526024908201527f45524332303a20617070726f76652066726f6d20746865207a65726f206164646040820152637265737360e01b606082015260800190565b60208082526025908201527f45524332303a2064656372656173656420616c6c6f77616e63652062656c6f77604082015264207a65726f60d81b606082015260800190565b6020808252601f908201527f45524332303a206d696e7420746f20746865207a65726f206164647265737300604082015260600190565b90815260200190565b60ff91909116815260200190565b60008219821115610cd657634e487b7160e01b81526011600452602481fd5b500190565b600281046001821680610cef57607f821691505b60208210811415610d1057634e487b7160e01b600052602260045260246000fd5b5091905056fea2646970667358221220d9941b58b52a7cd3d2a541dadf64d65d9cc0f2401ac28628b03ea8015e472ae464736f6c63430008000033",
    "linkReferences": {},
    "deployedLinkReferences": {}
}