{
    "_format": "hh-sol-artifact-1",
    "contractName": "Bank",
    "sourceName": "contracts/Bank.sol",
    "address": "0x3D56E0Bd3a9ed7b04c19E482578813E8033600Da",
    "abi": [
        {
            "inputs": [
                {
                    "internalType": "address",
                    "name": "token",
                    "type": "address"
                }
            ],
            "stateMutability": "nonpayable",
            "type": "constructor"
        },
        {
            "anonymous": false,
            "inputs": [
                {
                    "indexed": true,
                    "internalType": "address",
                    "name": "from",
                    "type": "address"
                },
                {
                    "indexed": true,
                    "internalType": "uint256",
                    "name": "amount",
                    "type": "uint256"
                }
            ],
            "name": "Deposit",
            "type": "event"
        },
        {
            "anonymous": false,
            "inputs": [
                {
                    "indexed": true,
                    "internalType": "address",
                    "name": "from",
                    "type": "address"
                },
                {
                    "indexed": true,
                    "internalType": "uint256",
                    "name": "amount",
                    "type": "uint256"
                }
            ],
            "name": "Withdraw",
            "type": "event"
        },
        {
            "inputs": [],
            "name": "_token",
            "outputs": [
                {
                    "internalType": "contract AWBCToken",
                    "name": "",
                    "type": "address"
                }
            ],
            "stateMutability": "view",
            "type": "function"
        },
        {
            "inputs": [
                {
                    "internalType": "address",
                    "name": "user",
                    "type": "address"
                }
            ],
            "name": "balanceOf",
            "outputs": [
                {
                    "internalType": "uint256",
                    "name": "",
                    "type": "uint256"
                }
            ],
            "stateMutability": "view",
            "type": "function"
        },
        {
            "inputs": [
                {
                    "internalType": "uint256",
                    "name": "amount",
                    "type": "uint256"
                }
            ],
            "name": "deposit",
            "outputs": [],
            "stateMutability": "nonpayable",
            "type": "function"
        },
        {
            "inputs": [
                {
                    "internalType": "bytes32",
                    "name": "message",
                    "type": "bytes32"
                },
                {
                    "internalType": "bytes",
                    "name": "signature",
                    "type": "bytes"
                }
            ],
            "name": "isValidAccessMessage",
            "outputs": [
                {
                    "internalType": "bool",
                    "name": "",
                    "type": "bool"
                }
            ],
            "stateMutability": "view",
            "type": "function"
        },
        {
            "inputs": [
                {
                    "internalType": "uint256",
                    "name": "amount",
                    "type": "uint256"
                },
                {
                    "internalType": "uint256",
                    "name": "nonce",
                    "type": "uint256"
                },
                {
                    "internalType": "bytes",
                    "name": "signature",
                    "type": "bytes"
                }
            ],
            "name": "withdraw",
            "outputs": [],
            "stateMutability": "nonpayable",
            "type": "function"
        }
    ],
    "bytecode": "0x608060405234801561001057600080fd5b50604051610e76380380610e7683398101604081905261002f9161005d565b600180546001600160a01b039092166001600160a01b0319928316179055600380549091163317905561008b565b60006020828403121561006e578081fd5b81516001600160a01b0381168114610084578182fd5b9392505050565b610ddc8061009a6000396000f3fe608060405234801561001057600080fd5b50600436106100575760003560e01c806370a082311461005c578063744fb6ca1461008557806386ad781c1461009a578063b6b55f25146100ba578063ecd0c0c3146100cd575b600080fd5b61006f61006a3660046109e5565b6100e2565b60405161007c9190610b2c565b60405180910390f35b610098610093366004610aa8565b610101565b005b6100ad6100a8366004610a33565b61055e565b60405161007c9190610be1565b6100986100c8366004610a78565b6105e6565b6100d56107f0565b60405161007c9190610b90565b6001600160a01b0381166000908152602081905260409020545b919050565b33600090815260026020908152604080832085845290915290205460ff16156101455760405162461bcd60e51b815260040161013c90610c6b565b60405180910390fd5b3360008181526002602090815260408083208684528252808320805460ff1916600117905551919261017f92909187918791309101610af6565b6040516020818303038152906040528051906020012090506000816040516020016101aa9190610b2c565b604051602081830303815290604052905060006101c782516107ff565b826040516020016101d9929190610b35565b6040516020818303038152906040528051906020012090506101fb818561055e565b6102175760405162461bcd60e51b815260040161013c90610c93565b3360009081526020819052604090205486111561036f57336000908152602081905260408120546102489088610cee565b3360009081526020819052604081208054929350839290919061026c908490610cc2565b909155505033600090815260208190526040908190205460015491516370a0823160e01b815290916001600160a01b0316906370a08231906102b2903090600401610b90565b60206040518083038186803b1580156102ca57600080fd5b505afa1580156102de573d6000803e3d6000fd5b505050506040513d601f19601f820116820180604052508101906103029190610a90565b101561036d576001546040516340c10f1960e01b81526001600160a01b03909116906340c10f199061033a9030908590600401610bc8565b600060405180830381600087803b15801561035457600080fd5b505af1158015610368573d6000803e3d6000fd5b505050505b505b336000908152602081905260408120805488929061038e908490610cee565b909155505060015460405163e1f21c6760e01b81526001600160a01b039091169063e1f21c67906103c89030903390600090600401610ba4565b602060405180830381600087803b1580156103e257600080fd5b505af11580156103f6573d6000803e3d6000fd5b505050506040513d601f19601f8201168201806040525081019061041a9190610a13565b5060015460405163e1f21c6760e01b81526001600160a01b039091169063e1f21c679061044f90309033908b90600401610ba4565b602060405180830381600087803b15801561046957600080fd5b505af115801561047d573d6000803e3d6000fd5b505050506040513d601f19601f820116820180604052508101906104a19190610a13565b506001546040516323b872dd60e01b81526001600160a01b03909116906323b872dd906104d690309033908b90600401610ba4565b602060405180830381600087803b1580156104f057600080fd5b505af1158015610504573d6000803e3d6000fd5b505050506040513d601f19601f820116820180604052508101906105289190610a13565b50604051869033907f884edad9ce6fa2440d8a54cc123490eb96d2768479d49ff9c7366125a942436490600090a3505050505050565b60008060008061056d85610922565b60035460408051600081526020019081905293965091945092506001600160a01b0316906001906105a5908990879087908790610bec565b6020604051602081039080840390855afa1580156105c7573d6000803e3d6000fd5b505050602060405103516001600160a01b031614935050505092915050565b600081116106065760405162461bcd60e51b815260040161013c90610c3c565b60015460405163e1f21c6760e01b81526001600160a01b039091169063e1f21c679061063b9033903090600090600401610ba4565b602060405180830381600087803b15801561065557600080fd5b505af1158015610669573d6000803e3d6000fd5b505050506040513d601f19601f8201168201806040525081019061068d9190610a13565b5060015460405163e1f21c6760e01b81526001600160a01b039091169063e1f21c67906106c290339030908690600401610ba4565b602060405180830381600087803b1580156106dc57600080fd5b505af11580156106f0573d6000803e3d6000fd5b505050506040513d601f19601f820116820180604052508101906107149190610a13565b506001546040516323b872dd60e01b81526001600160a01b03909116906323b872dd9061074990339030908690600401610ba4565b602060405180830381600087803b15801561076357600080fd5b505af1158015610777573d6000803e3d6000fd5b505050506040513d601f19601f8201168201806040525081019061079b9190610a13565b5033600090815260208190526040812080548392906107bb908490610cc2565b9091555050604051819033907fe1fffcc4923d04b559f4d29a8bfc6cda04eb5b0d3c460751c2402c5c5cc9109c90600090a350565b6001546001600160a01b031681565b60608161082457506040805180820190915260018152600360fc1b60208201526100fc565b8160005b811561084e578061083881610d35565b91506108479050600a83610cda565b9150610828565b60008167ffffffffffffffff81111561087757634e487b7160e01b600052604160045260246000fd5b6040519080825280601f01601f1916602001820160405280156108a1576020820181803683370190505b5090505b841561091a576108b6600183610cee565b91506108c3600a86610d50565b6108ce906030610cc2565b60f81b8183815181106108f157634e487b7160e01b600052603260045260246000fd5b60200101906001600160f81b031916908160001a905350610913600a86610cda565b94506108a5565b949350505050565b600080600083516041146109485760405162461bcd60e51b815260040161013c90610c0a565b5050506020810151604082015160609092015160001a92909190565b600082601f830112610974578081fd5b813567ffffffffffffffff8082111561098f5761098f610d90565b604051601f8301601f1916810160200182811182821017156109b3576109b3610d90565b6040528281528483016020018610156109ca578384fd5b82602086016020830137918201602001929092529392505050565b6000602082840312156109f6578081fd5b81356001600160a01b0381168114610a0c578182fd5b9392505050565b600060208284031215610a24578081fd5b81518015158114610a0c578182fd5b60008060408385031215610a45578081fd5b82359150602083013567ffffffffffffffff811115610a62578182fd5b610a6e85828601610964565b9150509250929050565b600060208284031215610a89578081fd5b5035919050565b600060208284031215610aa1578081fd5b5051919050565b600080600060608486031215610abc578081fd5b8335925060208401359150604084013567ffffffffffffffff811115610ae0578182fd5b610aec86828701610964565b9150509250925092565b6bffffffffffffffffffffffff19606095861b811682526014820194909452603481019290925290921b16605482015260680190565b90815260200190565b60007f19457468657265756d205369676e6564204d6573736167653a0a00000000000082528351610b6d81601a850160208801610d05565b835190830190610b8481601a840160208801610d05565b01601a01949350505050565b6001600160a01b0391909116815260200190565b6001600160a01b039384168152919092166020820152604081019190915260600190565b6001600160a01b03929092168252602082015260400190565b901515815260200190565b93845260ff9290921660208401526040830152606082015260800190565b6020808252601890820152775369676e61747572652069736e27742076616c696461746560401b604082015260600190565b6020808252601590820152740416d6f756e74206d757374206973207468616e203605c1b604082015260600190565b6020808252600e908201526d139bdb98d9481a185cc81d5cd95960921b604082015260600190565b60208082526015908201527413595cdcd859d9481a5cdb89dd0818dbdc9c9958dd605a1b604082015260600190565b60008219821115610cd557610cd5610d64565b500190565b600082610ce957610ce9610d7a565b500490565b600082821015610d0057610d00610d64565b500390565b60005b83811015610d20578181015183820152602001610d08565b83811115610d2f576000848401525b50505050565b6000600019821415610d4957610d49610d64565b5060010190565b600082610d5f57610d5f610d7a565b500690565b634e487b7160e01b600052601160045260246000fd5b634e487b7160e01b600052601260045260246000fd5b634e487b7160e01b600052604160045260246000fdfea26469706673582212207d690f400e8b7bbebc6ec9d22682ccbaaaf277ea36165c2165d5a7bee09112a264736f6c63430008000033",
    "linkReferences": {},
    "deployedLinkReferences": {}
}